{"abi":[{"type":"function","name":"absoluteCap","inputs":[{"name":"","type":"bytes32","internalType":"bytes32"}],"outputs":[{"name":"","type":"uint256","internalType":"uint256"}],"stateMutability":"pure"},{"type":"function","name":"allocate","inputs":[{"name":"","type":"address","internalType":"address"},{"name":"","type":"bytes","internalType":"bytes"},{"name":"","type":"uint256","internalType":"uint256"}],"outputs":[],"stateMutability":"pure"},{"type":"function","name":"allocation","inputs":[{"name":"","type":"bytes32","internalType":"bytes32"}],"outputs":[{"name":"","type":"uint256","internalType":"uint256"}],"stateMutability":"pure"},{"type":"function","name":"asset","inputs":[],"outputs":[{"name":"","type":"address","internalType":"address"}],"stateMutability":"view"},{"type":"function","name":"assetAddr","inputs":[],"outputs":[{"name":"","type":"address","internalType":"address"}],"stateMutability":"view"},{"type":"function","name":"deallocate","inputs":[{"name":"","type":"address","internalType":"address"},{"name":"","type":"bytes","internalType":"bytes"},{"name":"","type":"uint256","internalType":"uint256"}],"outputs":[],"stateMutability":"pure"},{"type":"function","name":"relativeCap","inputs":[{"name":"","type":"bytes32","internalType":"bytes32"}],"outputs":[{"name":"","type":"uint256","internalType":"uint256"}],"stateMutability":"pure"}],"bytecode":{"object":"0x608060405261dead5f5f6101000a81548173ffffffffffffffffffffffffffffffffffffffff021916908373ffffffffffffffffffffffffffffffffffffffff160217905550348015604f575f5ffd5b506105218061005d5f395ff3fe608060405234801561000f575f5ffd5b506004361061007b575f3560e01c80635c9ce04d116100595780635c9ce04d146100d7578063a68bafa3146100f3578063bc0dd37414610123578063c69507dd146101535761007b565b80631a6d4c391461007f57806338d52e0f1461009d5780634b219d16146100bb575b5f5ffd5b610087610183565b6040516100949190610236565b60405180910390f35b6100a56101a7565b6040516100b29190610236565b60405180910390f35b6100d560048036038101906100d091906103f9565b6101ce565b005b6100f160048036038101906100ec91906103f9565b6101d3565b005b61010d60048036038101906101089190610498565b6101d8565b60405161011a91906104d2565b60405180910390f35b61013d60048036038101906101389190610498565b6101e3565b60405161014a91906104d2565b60405180910390f35b61016d60048036038101906101689190610498565b6101ee565b60405161017a91906104d2565b60405180910390f35b5f5f9054906101000a900473ffffffffffffffffffffffffffffffffffffffff1681565b5f5f5f9054906101000a900473ffffffffffffffffffffffffffffffffffffffff16905090565b505050565b505050565b5f6103e89050919050565b5f6103e89050919050565b5f5f9050919050565b5f73ffffffffffffffffffffffffffffffffffffffff82169050919050565b5f610220826101f7565b9050919050565b61023081610216565b82525050565b5f6020820190506102495f830184610227565b92915050565b5f604051905090565b5f5ffd5b5f5ffd5b61026981610216565b8114610273575f5ffd5b50565b5f8135905061028481610260565b92915050565b5f5ffd5b5f5ffd5b5f601f19601f8301169050919050565b7f4e487b71000000000000000000000000000000000000000000000000000000005f52604160045260245ffd5b6102d882610292565b810181811067ffffffffffffffff821117156102f7576102f66102a2565b5b80604052505050565b5f61030961024f565b905061031582826102cf565b919050565b5f67ffffffffffffffff821115610334576103336102a2565b5b61033d82610292565b9050602081019050919050565b828183375f83830152505050565b5f61036a6103658461031a565b610300565b9050828152602081018484840111156103865761038561028e565b5b61039184828561034a565b509392505050565b5f82601f8301126103ad576103ac61028a565b5b81356103bd848260208601610358565b91505092915050565b5f819050919050565b6103d8816103c6565b81146103e2575f5ffd5b50565b5f813590506103f3816103cf565b92915050565b5f5f5f606084860312156104105761040f610258565b5b5f61041d86828701610276565b935050602084013567ffffffffffffffff81111561043e5761043d61025c565b5b61044a86828701610399565b925050604061045b868287016103e5565b9150509250925092565b5f819050919050565b61047781610465565b8114610481575f5ffd5b50565b5f813590506104928161046e565b92915050565b5f602082840312156104ad576104ac610258565b5b5f6104ba84828501610484565b91505092915050565b6104cc816103c6565b82525050565b5f6020820190506104e55f8301846104c3565b9291505056fea26469706673582212206c265ffa79e00d9bd3d2a36b27113a9475a6dff0e3abd0e7b1703926f83a322064736f6c634300081c0033","linkReferences":{}},"methodIdentifiers":{"absoluteCap(bytes32)":"bc0dd374","allocate(address,bytes,uint256)":"5c9ce04d","allocation(bytes32)":"c69507dd","asset()":"38d52e0f","assetAddr()":"1a6d4c39","deallocate(address,bytes,uint256)":"4b219d16","relativeCap(bytes32)":"a68bafa3"},"id":27}