{"abi":[{"type":"constructor","inputs":[{"name":"_admin","type":"address","internalType":"address"},{"name":"_operator","type":"address","internalType":"address"}],"stateMutability":"nonpayable"},{"type":"function","name":"proxy","inputs":[{"name":"vault","type":"address","internalType":"address"},{"name":"data","type":"bytes","internalType":"bytes"}],"outputs":[],"stateMutability":"payable"},{"type":"function","name":"setAdmin","inputs":[{"name":"_admin","type":"address","internalType":"address"}],"outputs":[],"stateMutability":"nonpayable"},{"type":"function","name":"setOperator","inputs":[{"name":"_operator","type":"address","internalType":"address"},{"name":"value","type":"bool","internalType":"bool"}],"outputs":[],"stateMutability":"nonpayable"},{"type":"function","name":"setPermissionedCall","inputs":[{"name":"sig","type":"bytes4","internalType":"bytes4"},{"name":"value","type":"bool","internalType":"bool"}],"outputs":[],"stateMutability":"nonpayable"},{"type":"event","name":"AddedPermissionedCall","inputs":[{"name":"sig","type":"bytes4","indexed":true,"internalType":"bytes4"}],"anonymous":false},{"type":"event","name":"AdminUpdated","inputs":[{"name":"admin","type":"address","indexed":true,"internalType":"address"}],"anonymous":false},{"type":"event","name":"OperatorUpdated","inputs":[{"name":"operator","type":"address","indexed":true,"internalType":"address"}],"anonymous":false}],"bytecode":{"object":"0x608060405234801561000f575f5ffd5b50604051610fa1380380610fa183398181016040528101906100319190610205565b5f73ffffffffffffffffffffffffffffffffffffffff168273ffffffffffffffffffffffffffffffffffffffff160361009f576040517f08c379a00000000000000000000000000000000000000000000000000000000081526004016100969061029d565b60405180910390fd5b5f73ffffffffffffffffffffffffffffffffffffffff168173ffffffffffffffffffffffffffffffffffffffff160361010d576040517f08c379a00000000000000000000000000000000000000000000000000000000081526004016101049061029d565b60405180910390fd5b815f5f6101000a81548173ffffffffffffffffffffffffffffffffffffffff021916908373ffffffffffffffffffffffffffffffffffffffff1602179055506001805f8373ffffffffffffffffffffffffffffffffffffffff1673ffffffffffffffffffffffffffffffffffffffff1681526020019081526020015f205f6101000a81548160ff02191690831515021790555050506102bb565b5f5ffd5b5f73ffffffffffffffffffffffffffffffffffffffff82169050919050565b5f6101d4826101ab565b9050919050565b6101e4816101ca565b81146101ee575f5ffd5b50565b5f815190506101ff816101db565b92915050565b5f5f6040838503121561021b5761021a6101a7565b5b5f610228858286016101f1565b9250506020610239858286016101f1565b9150509250929050565b5f82825260208201905092915050565b7f7a65726f000000000000000000000000000000000000000000000000000000005f82015250565b5f610287600483610243565b915061029282610253565b602082019050919050565b5f6020820190508181035f8301526102b48161027b565b9050919050565b610cd9806102c85f395ff3fe60806040526004361061003e575f3560e01c8063558a729714610042578063704b6c021461006a578063be6d055a14610092578063fdc1a388146100ae575b5f5ffd5b34801561004d575f5ffd5b50610068600480360381019061006391906107f9565b6100d6565b005b348015610075575f5ffd5b50610090600480360381019061008b9190610837565b61026d565b005b6100ac60048036038101906100a7919061099e565b6103ee565b005b3480156100b9575f5ffd5b506100d460048036038101906100cf9190610a4d565b610615565b005b5f5f9054906101000a900473ffffffffffffffffffffffffffffffffffffffff1673ffffffffffffffffffffffffffffffffffffffff163373ffffffffffffffffffffffffffffffffffffffff1614610164576040517f08c379a000000000000000000000000000000000000000000000000000000000815260040161015b90610ae5565b60405180910390fd5b5f73ffffffffffffffffffffffffffffffffffffffff168273ffffffffffffffffffffffffffffffffffffffff16036101d2576040517f08c379a00000000000000000000000000000000000000000000000000000000081526004016101c990610b4d565b60405180910390fd5b8060015f8473ffffffffffffffffffffffffffffffffffffffff1673ffffffffffffffffffffffffffffffffffffffff1681526020019081526020015f205f6101000a81548160ff0219169083151502179055508173ffffffffffffffffffffffffffffffffffffffff167fb3b3f5f64ab192e4b5fefde1f51ce9733bbdcf831951543b325aebd49cc27ec460405160405180910390a25050565b5f5f9054906101000a900473ffffffffffffffffffffffffffffffffffffffff1673ffffffffffffffffffffffffffffffffffffffff163373ffffffffffffffffffffffffffffffffffffffff16146102fb576040517f08c379a00000000000000000000000000000000000000000000000000000000081526004016102f290610ae5565b60405180910390fd5b5f73ffffffffffffffffffffffffffffffffffffffff168173ffffffffffffffffffffffffffffffffffffffff1603610369576040517f08c379a000000000000000000000000000000000000000000000000000000000815260040161036090610b4d565b60405180910390fd5b805f5f6101000a81548173ffffffffffffffffffffffffffffffffffffffff021916908373ffffffffffffffffffffffffffffffffffffffff1602179055508073ffffffffffffffffffffffffffffffffffffffff167f54e4612788f90384e6843298d7854436f3a585b2c3831ab66abf1de63bfa6c2d60405160405180910390a250565b5f5f9054906101000a900473ffffffffffffffffffffffffffffffffffffffff1673ffffffffffffffffffffffffffffffffffffffff163373ffffffffffffffffffffffffffffffffffffffff161461047c576040517f08c379a000000000000000000000000000000000000000000000000000000000815260040161047390610ae5565b60405180910390fd5b5f6004825110156104c2576040517f08c379a00000000000000000000000000000000000000000000000000000000081526004016104b990610bb5565b60405180910390fd5b6020820151905060025f827bffffffffffffffffffffffffffffffffffffffffffffffffffffffff19167bffffffffffffffffffffffffffffffffffffffffffffffffffffffff191681526020019081526020015f205f9054906101000a900460ff1615610565576040517f08c379a000000000000000000000000000000000000000000000000000000000815260040161055c90610ae5565b60405180910390fd5b5f8373ffffffffffffffffffffffffffffffffffffffff16348460405161058c9190610c25565b5f6040518083038185875af1925050503d805f81146105c6576040519150601f19603f3d011682016040523d82523d5f602084013e6105cb565b606091505b505090508061060f576040517f08c379a000000000000000000000000000000000000000000000000000000000815260040161060690610c85565b60405180910390fd5b50505050565b5f5f9054906101000a900473ffffffffffffffffffffffffffffffffffffffff1673ffffffffffffffffffffffffffffffffffffffff163373ffffffffffffffffffffffffffffffffffffffff16146106a3576040517f08c379a000000000000000000000000000000000000000000000000000000000815260040161069a90610ae5565b60405180910390fd5b8060025f847bffffffffffffffffffffffffffffffffffffffffffffffffffffffff19167bffffffffffffffffffffffffffffffffffffffffffffffffffffffff191681526020019081526020015f205f6101000a81548160ff021916908315150217905550817bffffffffffffffffffffffffffffffffffffffffffffffffffffffff19167fe19dfad2f5dfb0b45b44cf16f0a32e37d7d05b80a3ceafa49a2ec7e65e60ea3c60405160405180910390a25050565b5f604051905090565b5f5ffd5b5f5ffd5b5f73ffffffffffffffffffffffffffffffffffffffff82169050919050565b5f6107938261076a565b9050919050565b6107a381610789565b81146107ad575f5ffd5b50565b5f813590506107be8161079a565b92915050565b5f8115159050919050565b6107d8816107c4565b81146107e2575f5ffd5b50565b5f813590506107f3816107cf565b92915050565b5f5f6040838503121561080f5761080e610762565b5b5f61081c858286016107b0565b925050602061082d858286016107e5565b9150509250929050565b5f6020828403121561084c5761084b610762565b5b5f610859848285016107b0565b91505092915050565b5f5ffd5b5f5ffd5b5f601f19601f8301169050919050565b7f4e487b71000000000000000000000000000000000000000000000000000000005f52604160045260245ffd5b6108b08261086a565b810181811067ffffffffffffffff821117156108cf576108ce61087a565b5b80604052505050565b5f6108e1610759565b90506108ed82826108a7565b919050565b5f67ffffffffffffffff82111561090c5761090b61087a565b5b6109158261086a565b9050602081019050919050565b828183375f83830152505050565b5f61094261093d846108f2565b6108d8565b90508281526020810184848401111561095e5761095d610866565b5b610969848285610922565b509392505050565b5f82601f83011261098557610984610862565b5b8135610995848260208601610930565b91505092915050565b5f5f604083850312156109b4576109b3610762565b5b5f6109c1858286016107b0565b925050602083013567ffffffffffffffff8111156109e2576109e1610766565b5b6109ee85828601610971565b9150509250929050565b5f7fffffffff0000000000000000000000000000000000000000000000000000000082169050919050565b610a2c816109f8565b8114610a36575f5ffd5b50565b5f81359050610a4781610a23565b92915050565b5f5f60408385031215610a6357610a62610762565b5b5f610a7085828601610a39565b9250506020610a81858286016107e5565b9150509250929050565b5f82825260208201905092915050565b7f50440000000000000000000000000000000000000000000000000000000000005f82015250565b5f610acf600283610a8b565b9150610ada82610a9b565b602082019050919050565b5f6020820190508181035f830152610afc81610ac3565b9050919050565b7f7a65726f000000000000000000000000000000000000000000000000000000005f82015250565b5f610b37600483610a8b565b9150610b4282610b03565b602082019050919050565b5f6020820190508181035f830152610b6481610b2b565b9050919050565b7f53454c00000000000000000000000000000000000000000000000000000000005f82015250565b5f610b9f600383610a8b565b9150610baa82610b6b565b602082019050919050565b5f6020820190508181035f830152610bcc81610b93565b9050919050565b5f81519050919050565b5f81905092915050565b8281835e5f83830152505050565b5f610bff82610bd3565b610c098185610bdd565b9350610c19818560208601610be7565b80840191505092915050565b5f610c308284610bf5565b915081905092915050565b7f6661696c656400000000000000000000000000000000000000000000000000005f82015250565b5f610c6f600683610a8b565b9150610c7a82610c3b565b602082019050919050565b5f6020820190508181035f830152610c9c81610c63565b905091905056fea26469706673582212208367b7c9154edf185e97d0064ff609edeed1d7eb8babc9d8210ef45e6b11fd5864736f6c634300081c0033","linkReferences":{}},"methodIdentifiers":{"proxy(address,bytes)":"be6d055a","setAdmin(address)":"704b6c02","setOperator(address,bool)":"558a7297","setPermissionedCall(bytes4,bool)":"fdc1a388"},"id":6}