{"abi":[{"type":"constructor","inputs":[{"name":"_vault","type":"address","internalType":"address"},{"name":"_admin","type":"address","internalType":"address"},{"name":"_operator","type":"address","internalType":"address"}],"stateMutability":"nonpayable"},{"type":"function","name":"allocate","inputs":[{"name":"adapter","type":"address","internalType":"address"},{"name":"amount","type":"uint256","internalType":"uint256"}],"outputs":[],"stateMutability":"nonpayable"},{"type":"function","name":"deallocate","inputs":[{"name":"adapter","type":"address","internalType":"address"},{"name":"amount","type":"uint256","internalType":"uint256"}],"outputs":[],"stateMutability":"nonpayable"},{"type":"function","name":"proxy","inputs":[{"name":"vault","type":"address","internalType":"address"},{"name":"data","type":"bytes","internalType":"bytes"}],"outputs":[],"stateMutability":"payable"},{"type":"function","name":"setAdmin","inputs":[{"name":"_admin","type":"address","internalType":"address"}],"outputs":[],"stateMutability":"nonpayable"},{"type":"function","name":"setOperator","inputs":[{"name":"_operator","type":"address","internalType":"address"},{"name":"value","type":"bool","internalType":"bool"}],"outputs":[],"stateMutability":"nonpayable"},{"type":"function","name":"setPermissionedCall","inputs":[{"name":"sig","type":"bytes4","internalType":"bytes4"},{"name":"value","type":"bool","internalType":"bool"}],"outputs":[],"stateMutability":"nonpayable"},{"type":"event","name":"AddedPermissionedCall","inputs":[{"name":"sig","type":"bytes4","indexed":true,"internalType":"bytes4"}],"anonymous":false},{"type":"event","name":"AdminUpdated","inputs":[{"name":"admin","type":"address","indexed":true,"internalType":"address"}],"anonymous":false},{"type":"event","name":"OperatorUpdated","inputs":[{"name":"operator","type":"address","indexed":true,"internalType":"address"}],"anonymous":false}],"bytecode":{"object":"0x60a060405234801561000f575f5ffd5b50604051611d66380380611d66833981810160405281019061003191906103b6565b81815f73ffffffffffffffffffffffffffffffffffffffff168273ffffffffffffffffffffffffffffffffffffffff16036100a1576040517f08c379a000000000000000000000000000000000000000000000000000000000815260040161009890610460565b60405180910390fd5b5f73ffffffffffffffffffffffffffffffffffffffff168173ffffffffffffffffffffffffffffffffffffffff160361010f576040517f08c379a000000000000000000000000000000000000000000000000000000000815260040161010690610460565b60405180910390fd5b815f5f6101000a81548173ffffffffffffffffffffffffffffffffffffffff021916908373ffffffffffffffffffffffffffffffffffffffff1602179055506001805f8373ffffffffffffffffffffffffffffffffffffffff1673ffffffffffffffffffffffffffffffffffffffff1681526020019081526020015f205f6101000a81548160ff02191690831515021790555050505f73ffffffffffffffffffffffffffffffffffffffff168373ffffffffffffffffffffffffffffffffffffffff166338d52e0f6040518163ffffffff1660e01b8152600401602060405180830381865afa158015610204573d5f5f3e3d5ffd5b505050506040513d601f19601f82011682018060405250810190610228919061047e565b73ffffffffffffffffffffffffffffffffffffffff160361027e576040517f08c379a0000000000000000000000000000000000000000000000000000000008152600401610275906104f3565b60405180910390fd5b8273ffffffffffffffffffffffffffffffffffffffff1660808173ffffffffffffffffffffffffffffffffffffffff1681525050600160025f635c9ce04d60e01b7bffffffffffffffffffffffffffffffffffffffffffffffffffffffff191681526020019081526020015f205f6101000a81548160ff021916908315150217905550600160025f634b219d1660e01b7bffffffffffffffffffffffffffffffffffffffffffffffffffffffff191681526020019081526020015f205f6101000a81548160ff021916908315150217905550505050610511565b5f5ffd5b5f73ffffffffffffffffffffffffffffffffffffffff82169050919050565b5f6103858261035c565b9050919050565b6103958161037b565b811461039f575f5ffd5b50565b5f815190506103b08161038c565b92915050565b5f5f5f606084860312156103cd576103cc610358565b5b5f6103da868287016103a2565b93505060206103eb868287016103a2565b92505060406103fc868287016103a2565b9150509250925092565b5f82825260208201905092915050565b7f7a65726f000000000000000000000000000000000000000000000000000000005f82015250565b5f61044a600483610406565b915061045582610416565b602082019050919050565b5f6020820190508181035f8301526104778161043e565b9050919050565b5f6020828403121561049357610492610358565b5b5f6104a0848285016103a2565b91505092915050565b7f49560000000000000000000000000000000000000000000000000000000000005f82015250565b5f6104dd600283610406565b91506104e8826104a9565b602082019050919050565b5f6020820190508181035f83015261050a816104d1565b9050919050565b60805161180c61055a5f395f8181610425015281816104c0015281816105f6015281816106af01528181610a1401528181610aaf01528181610be50152610c9e015261180c5ff3fe608060405260043610610054575f3560e01c8063558a72971461005857806359db9eb014610080578063704b6c02146100a8578063b78b52df146100d0578063be6d055a146100f8578063fdc1a38814610114575b5f5ffd5b348015610063575f5ffd5b5061007e6004803603810190610079919061113b565b61013c565b005b34801561008b575f5ffd5b506100a660048036038101906100a191906111ac565b6102d3565b005b3480156100b3575f5ffd5b506100ce60048036038101906100c991906111ea565b610741565b005b3480156100db575f5ffd5b506100f660048036038101906100f191906111ac565b6108c2565b005b610112600480360381019061010d9190611351565b610d30565b005b34801561011f575f5ffd5b5061013a60048036038101906101359190611400565b610f57565b005b5f5f9054906101000a900473ffffffffffffffffffffffffffffffffffffffff1673ffffffffffffffffffffffffffffffffffffffff163373ffffffffffffffffffffffffffffffffffffffff16146101ca576040517f08c379a00000000000000000000000000000000000000000000000000000000081526004016101c190611498565b60405180910390fd5b5f73ffffffffffffffffffffffffffffffffffffffff168273ffffffffffffffffffffffffffffffffffffffff1603610238576040517f08c379a000000000000000000000000000000000000000000000000000000000815260040161022f90611500565b60405180910390fd5b8060015f8473ffffffffffffffffffffffffffffffffffffffff1673ffffffffffffffffffffffffffffffffffffffff1681526020019081526020015f205f6101000a81548160ff0219169083151502179055508173ffffffffffffffffffffffffffffffffffffffff167fb3b3f5f64ab192e4b5fefde1f51ce9733bbdcf831951543b325aebd49cc27ec460405160405180910390a25050565b5f5f9054906101000a900473ffffffffffffffffffffffffffffffffffffffff1673ffffffffffffffffffffffffffffffffffffffff163373ffffffffffffffffffffffffffffffffffffffff161480610373575060015f3373ffffffffffffffffffffffffffffffffffffffff1673ffffffffffffffffffffffffffffffffffffffff1681526020019081526020015f205f9054906101000a900460ff165b6103b2576040517f08c379a00000000000000000000000000000000000000000000000000000000081526004016103a990611498565b60405180910390fd5b5f8273ffffffffffffffffffffffffffffffffffffffff16635fb86b016040518163ffffffff1660e01b8152600401602060405180830381865afa1580156103fc573d5f5f3e3d5ffd5b505050506040513d601f19601f820116820180604052508101906104209190611551565b90505f7f000000000000000000000000000000000000000000000000000000000000000073ffffffffffffffffffffffffffffffffffffffff1663bc0dd374836040518263ffffffff1660e01b815260040161047c919061158b565b602060405180830381865afa158015610497573d5f5f3e3d5ffd5b505050506040513d601f19601f820116820180604052508101906104bb91906115b8565b90505f7f000000000000000000000000000000000000000000000000000000000000000073ffffffffffffffffffffffffffffffffffffffff1663a68bafa3846040518263ffffffff1660e01b8152600401610517919061158b565b602060405180830381865afa158015610532573d5f5f3e3d5ffd5b505050506040513d601f19601f8201168201806040525081019061055691906115b8565b90505f7fffffffffffffffffffffffffffffffffffffffffffffffffffffffffffffffff90505f82841061058a578261058c565b835b90505f5f9054906101000a900473ffffffffffffffffffffffffffffffffffffffff1673ffffffffffffffffffffffffffffffffffffffff163373ffffffffffffffffffffffffffffffffffffffff16146105f3578181106105ee57816105f0565b805b90505b5f7f000000000000000000000000000000000000000000000000000000000000000073ffffffffffffffffffffffffffffffffffffffff1663c69507dd876040518263ffffffff1660e01b815260040161064d919061158b565b602060405180830381865afa158015610668573d5f5f3e3d5ffd5b505050506040513d601f19601f8201168201806040525081019061068c91906115b8565b60405160200161069c91906115f2565b60405160208183030381529060405290507f000000000000000000000000000000000000000000000000000000000000000073ffffffffffffffffffffffffffffffffffffffff16634b219d1689838a6040518463ffffffff1660e01b815260040161070a9392919061167a565b5f604051808303815f87803b158015610721575f5ffd5b505af1158015610733573d5f5f3e3d5ffd5b505050505050505050505050565b5f5f9054906101000a900473ffffffffffffffffffffffffffffffffffffffff1673ffffffffffffffffffffffffffffffffffffffff163373ffffffffffffffffffffffffffffffffffffffff16146107cf576040517f08c379a00000000000000000000000000000000000000000000000000000000081526004016107c690611498565b60405180910390fd5b5f73ffffffffffffffffffffffffffffffffffffffff168173ffffffffffffffffffffffffffffffffffffffff160361083d576040517f08c379a000000000000000000000000000000000000000000000000000000000815260040161083490611500565b60405180910390fd5b805f5f6101000a81548173ffffffffffffffffffffffffffffffffffffffff021916908373ffffffffffffffffffffffffffffffffffffffff1602179055508073ffffffffffffffffffffffffffffffffffffffff167f54e4612788f90384e6843298d7854436f3a585b2c3831ab66abf1de63bfa6c2d60405160405180910390a250565b5f5f9054906101000a900473ffffffffffffffffffffffffffffffffffffffff1673ffffffffffffffffffffffffffffffffffffffff163373ffffffffffffffffffffffffffffffffffffffff161480610962575060015f3373ffffffffffffffffffffffffffffffffffffffff1673ffffffffffffffffffffffffffffffffffffffff1681526020019081526020015f205f9054906101000a900460ff165b6109a1576040517f08c379a000000000000000000000000000000000000000000000000000000000815260040161099890611498565b60405180910390fd5b5f8273ffffffffffffffffffffffffffffffffffffffff16635fb86b016040518163ffffffff1660e01b8152600401602060405180830381865afa1580156109eb573d5f5f3e3d5ffd5b505050506040513d601f19601f82011682018060405250810190610a0f9190611551565b90505f7f000000000000000000000000000000000000000000000000000000000000000073ffffffffffffffffffffffffffffffffffffffff1663bc0dd374836040518263ffffffff1660e01b8152600401610a6b919061158b565b602060405180830381865afa158015610a86573d5f5f3e3d5ffd5b505050506040513d601f19601f82011682018060405250810190610aaa91906115b8565b90505f7f000000000000000000000000000000000000000000000000000000000000000073ffffffffffffffffffffffffffffffffffffffff1663a68bafa3846040518263ffffffff1660e01b8152600401610b06919061158b565b602060405180830381865afa158015610b21573d5f5f3e3d5ffd5b505050506040513d601f19601f82011682018060405250810190610b4591906115b8565b90505f7fffffffffffffffffffffffffffffffffffffffffffffffffffffffffffffffff90505f828411610b795782610b7b565b835b90505f5f9054906101000a900473ffffffffffffffffffffffffffffffffffffffff1673ffffffffffffffffffffffffffffffffffffffff163373ffffffffffffffffffffffffffffffffffffffff1614610be257818111610bdd5781610bdf565b805b90505b5f7f000000000000000000000000000000000000000000000000000000000000000073ffffffffffffffffffffffffffffffffffffffff1663c69507dd876040518263ffffffff1660e01b8152600401610c3c919061158b565b602060405180830381865afa158015610c57573d5f5f3e3d5ffd5b505050506040513d601f19601f82011682018060405250810190610c7b91906115b8565b604051602001610c8b91906115f2565b60405160208183030381529060405290507f000000000000000000000000000000000000000000000000000000000000000073ffffffffffffffffffffffffffffffffffffffff16635c9ce04d89838a6040518463ffffffff1660e01b8152600401610cf99392919061167a565b5f604051808303815f87803b158015610d10575f5ffd5b505af1158015610d22573d5f5f3e3d5ffd5b505050505050505050505050565b5f5f9054906101000a900473ffffffffffffffffffffffffffffffffffffffff1673ffffffffffffffffffffffffffffffffffffffff163373ffffffffffffffffffffffffffffffffffffffff1614610dbe576040517f08c379a0000000000000000000000000000000000000000000000000000000008152600401610db590611498565b60405180910390fd5b5f600482511015610e04576040517f08c379a0000000000000000000000000000000000000000000000000000000008152600401610dfb90611700565b60405180910390fd5b6020820151905060025f827bffffffffffffffffffffffffffffffffffffffffffffffffffffffff19167bffffffffffffffffffffffffffffffffffffffffffffffffffffffff191681526020019081526020015f205f9054906101000a900460ff1615610ea7576040517f08c379a0000000000000000000000000000000000000000000000000000000008152600401610e9e90611498565b60405180910390fd5b5f8373ffffffffffffffffffffffffffffffffffffffff163484604051610ece9190611758565b5f6040518083038185875af1925050503d805f8114610f08576040519150601f19603f3d011682016040523d82523d5f602084013e610f0d565b606091505b5050905080610f51576040517f08c379a0000000000000000000000000000000000000000000000000000000008152600401610f48906117b8565b60405180910390fd5b50505050565b5f5f9054906101000a900473ffffffffffffffffffffffffffffffffffffffff1673ffffffffffffffffffffffffffffffffffffffff163373ffffffffffffffffffffffffffffffffffffffff1614610fe5576040517f08c379a0000000000000000000000000000000000000000000000000000000008152600401610fdc90611498565b60405180910390fd5b8060025f847bffffffffffffffffffffffffffffffffffffffffffffffffffffffff19167bffffffffffffffffffffffffffffffffffffffffffffffffffffffff191681526020019081526020015f205f6101000a81548160ff021916908315150217905550817bffffffffffffffffffffffffffffffffffffffffffffffffffffffff19167fe19dfad2f5dfb0b45b44cf16f0a32e37d7d05b80a3ceafa49a2ec7e65e60ea3c60405160405180910390a25050565b5f604051905090565b5f5ffd5b5f5ffd5b5f73ffffffffffffffffffffffffffffffffffffffff82169050919050565b5f6110d5826110ac565b9050919050565b6110e5816110cb565b81146110ef575f5ffd5b50565b5f81359050611100816110dc565b92915050565b5f8115159050919050565b61111a81611106565b8114611124575f5ffd5b50565b5f8135905061113581611111565b92915050565b5f5f60408385031215611151576111506110a4565b5b5f61115e858286016110f2565b925050602061116f85828601611127565b9150509250929050565b5f819050919050565b61118b81611179565b8114611195575f5ffd5b50565b5f813590506111a681611182565b92915050565b5f5f604083850312156111c2576111c16110a4565b5b5f6111cf858286016110f2565b92505060206111e085828601611198565b9150509250929050565b5f602082840312156111ff576111fe6110a4565b5b5f61120c848285016110f2565b91505092915050565b5f5ffd5b5f5ffd5b5f601f19601f8301169050919050565b7f4e487b71000000000000000000000000000000000000000000000000000000005f52604160045260245ffd5b6112638261121d565b810181811067ffffffffffffffff821117156112825761128161122d565b5b80604052505050565b5f61129461109b565b90506112a0828261125a565b919050565b5f67ffffffffffffffff8211156112bf576112be61122d565b5b6112c88261121d565b9050602081019050919050565b828183375f83830152505050565b5f6112f56112f0846112a5565b61128b565b90508281526020810184848401111561131157611310611219565b5b61131c8482856112d5565b509392505050565b5f82601f83011261133857611337611215565b5b81356113488482602086016112e3565b91505092915050565b5f5f60408385031215611367576113666110a4565b5b5f611374858286016110f2565b925050602083013567ffffffffffffffff811115611395576113946110a8565b5b6113a185828601611324565b9150509250929050565b5f7fffffffff0000000000000000000000000000000000000000000000000000000082169050919050565b6113df816113ab565b81146113e9575f5ffd5b50565b5f813590506113fa816113d6565b92915050565b5f5f60408385031215611416576114156110a4565b5b5f611423858286016113ec565b925050602061143485828601611127565b9150509250929050565b5f82825260208201905092915050565b7f50440000000000000000000000000000000000000000000000000000000000005f82015250565b5f61148260028361143e565b915061148d8261144e565b602082019050919050565b5f6020820190508181035f8301526114af81611476565b9050919050565b7f7a65726f000000000000000000000000000000000000000000000000000000005f82015250565b5f6114ea60048361143e565b91506114f5826114b6565b602082019050919050565b5f6020820190508181035f830152611517816114de565b9050919050565b5f819050919050565b6115308161151e565b811461153a575f5ffd5b50565b5f8151905061154b81611527565b92915050565b5f60208284031215611566576115656110a4565b5b5f6115738482850161153d565b91505092915050565b6115858161151e565b82525050565b5f60208201905061159e5f83018461157c565b92915050565b5f815190506115b281611182565b92915050565b5f602082840312156115cd576115cc6110a4565b5b5f6115da848285016115a4565b91505092915050565b6115ec81611179565b82525050565b5f6020820190506116055f8301846115e3565b92915050565b611614816110cb565b82525050565b5f81519050919050565b5f82825260208201905092915050565b8281835e5f83830152505050565b5f61164c8261161a565b6116568185611624565b9350611666818560208601611634565b61166f8161121d565b840191505092915050565b5f60608201905061168d5f83018661160b565b818103602083015261169f8185611642565b90506116ae60408301846115e3565b949350505050565b7f53454c00000000000000000000000000000000000000000000000000000000005f82015250565b5f6116ea60038361143e565b91506116f5826116b6565b602082019050919050565b5f6020820190508181035f830152611717816116de565b9050919050565b5f81905092915050565b5f6117328261161a565b61173c818561171e565b935061174c818560208601611634565b80840191505092915050565b5f6117638284611728565b915081905092915050565b7f6661696c656400000000000000000000000000000000000000000000000000005f82015250565b5f6117a260068361143e565b91506117ad8261176e565b602082019050919050565b5f6020820190508181035f8301526117cf81611796565b905091905056fea264697066735822122061ac4bb0c0dc7023a591c7a051236628b3302c155448d1e5827749da2cc9fab164736f6c634300081c0033","linkReferences":{}},"methodIdentifiers":{"allocate(address,uint256)":"b78b52df","deallocate(address,uint256)":"59db9eb0","proxy(address,bytes)":"be6d055a","setAdmin(address)":"704b6c02","setOperator(address,bool)":"558a7297","setPermissionedCall(bytes4,bool)":"fdc1a388"},"id":26}